:020000040000FA
:100000000C9436000C945E000C945E000C945E0020
:100010000C945E000C945E000C945E000C945E00E8
:100020000C945E000C945E000C945E000C945E00D8
:100030000C945E000C945E000C945E000C945E00C8
:100040000C9409040C945E000C94D7030C94B10337
:100050000C945E000C945E000C945E000C945E00A8
:100060000C945E000C945E005304F20611241FBE33
:10007000CFEFD8E0DEBFCDBF22E0ACE3B1E001C0FE
:100080001D92AC3CB207E1F711E0A0E0B1E0E4E181
:10009000F4E102C005900D92AC33B107D9F710E03E
:1000A000C5E3D0E004C02197FE010E940008C433DC
:1000B000D107C9F70E9496040C94FD090C94000026
:1000C00090E080E00895AF92BF92CF92DF92EF92DE
:1000D000FF920F931F93CF93DF936C017B018B01F2
:1000E000040F151FEB015E01AE18BF08C017D10742
:1000F00059F06991D601ED91FC910190F081E02DCC
:10010000C6010995892B79F7C501DF91CF911F9120
:100110000F91FF90EF90DF90CF90BF90AF90089538
:10012000FC01538D448D252F30E0842F90E0821BFD
:10013000930B541710F0CF96089501970895FC0182
:10014000918D828D981761F0A28DAE0FBF2FB11DDA
:100150005D968C91928D9F5F9F73928F90E0089532
:100160008FEF9FEF0895FC01918D828D981731F0EC
:10017000828DE80FF11D858D90E008958FEF9FEF40
:100180000895FC01918D228D892F90E0805C9F4F16
:10019000821B91098F739927089580E192E00E9454
:1001A000C10021E0892B09F420E0822F089580E02E
:1001B00090E0892B29F00E94CD0081110C94000061
:1001C0000895FC01A48DA80FB92FB11DA35ABF4FEC
:1001D0002C91848D90E001968F739927848FA68946
:1001E000B7892C93A089B1898C91837080648C939A
:1001F000938D848D981306C00288F389E02D808149
:100200008F7D80830895EF92FF920F931F93CF937A
:10021000DF93EC0181E0888F9B8D8C8D98131AC041
:10022000E889F989808185FF15C09FB7F894EE8928
:10023000FF896083E889F989808183708064808385
:100240009FBF81E090E0DF91CF911F910F91FF90D0
:10025000EF900895F62E0B8D10E00F5F1F4F0F7378
:100260001127E02E8C8D8E110CC00FB607FCFACF33
:10027000E889F989808185FFF5CFCE010E94E100F0
:10028000F1CFEB8DEC0FFD2FF11DE35AFF4FF08204
:100290009FB7F8940B8FEA89FB8980818062CFCF6A
:1002A000CF93DF93EC01888D8823B9F0AA89BB89AD
:1002B000E889F9898C9185FD03C0808186FD0DC098
:1002C0000FB607FCF7CF8C9185FFF2CF808185FFB9
:1002D000EDCFCE010E94E100E9CFDF91CF910895EB
:1002E0003FB7F89480913E0190913F01A091400169
:1002F000B091410126B5A89B05C02F3F19F001968A
:10030000A11DB11D3FBFBA2FA92F982F8827BC016F
:10031000CD01620F711D811D911D42E0660F771F97
:10032000881F991F4A95D1F708950F931F93CF9374
:10033000DF9320913C012F5F322F377030933C01C7
:1003400020FF2BC020E831FD2064347009F02062CA
:10035000205FFC01EC01239600E011E06485662338
:1003600029F070E0C8010E94B6076F5F6187322FE5
:10037000369F030E30E0311D1124311110C016825A
:10038000662311F0615061873196EC17FD0731F754
:10039000DF91CF911F910F91089520E0D4CF31507C
:1003A0003683EECF87FF3FC05E9A2D9A001400146B
:1003B0002D98001486FF39C05E9A2D9A00140014FF
:1003C0002D98001485FF33C05E9A2D9A00140014F6
:1003D0002D98001484FF2DC05E9A2D9A00140014ED
:1003E0002D98001483FF27C05E9A2D9A00140014E4
:1003F0002D98001482FF21C05E9A2D9A00140014DB
:100400002D98001481FF1BC05E9A2D9A00140014D1
:100410002D98001480FF15C05E9A2D9A00140014C8
:100420002D98001408955E98C0CF5E98C6CF5E9850
:10043000CCCF5E98D2CF5E98D8CF5E98DECF5E9854
:10044000E4CF5E98EACFDC018D919C91009739F062
:10045000DC01ED91FC910280F381E02D0994089577
:10046000AF92BF92CF92DF92EF92FF920F931F93C2
:10047000CF93DF93EB017C012FE0E20EF11CDC0156
:100480001F968D919C91009739F0DC01ED91FC91C4
:100490000190F081E02D0995CC84BD84AE8480E08C
:1004A0000E94D20180E00E94D20180E00E94D2012D
:1004B00080E00E94D2018C819D81181619060CF0F3
:1004C00044C0E881F98188899989E80FF91F128170
:1004D0002A2D129F010E10E0111D112401813B2DC8
:1004E000039F000E00E0011D1124D0802D2D3C2D16
:1004F000239F020E20E0211D1124D22E8FEF0E9497
:10050000D2018D2D0E94D201802F0E94D201812F15
:100510000E94D20189859E81891B8E838A859F8155
:10052000891B8F838B859885891B88872F85888178
:100530009981820F911D27FD9A95998388838C81DB
:100540009D8101979D838C83B6CF0A80DB81C02D6E
:10055000D7FD6F9685E0D595C7958A95E1F78FEF22
:100560000E94D20180E00E94D20180E00E94D2016C
:1005700080E00E94D201219790F7C701DF91CF91CF
:100580001F910F91FF90EF90DF90CF90BF90AF90B1
:100590000C942302569A259A0F960C942302EF92FC
:1005A000FF920F931F93CF93DF93CDB7DEB7629780
:1005B0000FB6F894DEBF0FBECDBF7C01DC011C96E8
:1005C0008C917A8369835C834B835E834D830D8733
:1005D0001E872F87813001F5CE0101960E9495017B
:1005E00083E0888B1A8A198AD701ED91FC910484E3
:1005F000F585E02DBE016F5F7F4FC70109956296BB
:100600000FB6F894DEBF0FBECDBFDF91CF911F9123
:100610000F91FF90EF9008951C861B861A8619860D
:1006200018861F82DDCFEF92FF920F931F93CF9317
:10063000DF93CDB7DEB762970FB6F894DEBF0FBE7B
:10064000CDBF7C01DC011C968C917A8369835C832D
:100650004B835E834D830D871E872F878130F9F48E
:10066000CE0101960E949501188A1A8A198AD7012B
:10067000ED91FC910484F585E02DBE016F5F7F4F05
:10068000C701099562960FB6F894DEBF0FBECDBFC5
:10069000DF91CF911F910F91FF90EF9008951C86ED
:1006A0001B861A86198618861F82DECFFC01858577
:1006B000968508950F931F93CF93DF9300D01F92D9
:1006C000CDB7DEB7AB0119821A821B82DC01ED9136
:1006D000FC910190F081E02D00E010E020E0BE01EF
:1006E0006F5F7F4F09950F900F900F90DF91CF9123
:1006F0001F910F910895CF93DF93EC011982188217
:100700001B821A821D821C8261E070E090E080E012
:100710000E942B090097A1F0998388831B821A827B
:100720002C813D81232B11F4FC0110821D821C823F
:100730006BE371E088819981DF91CF910C94F60988
:1007400088819981009711F00E94A208198218826D
:100750001D821C821B821A82DF91CF9108950E9414
:10076000E8091F920F920FB60F9211242F933F9317
:100770004F935F936F937F938F939F93AF93BF93A9
:10078000EF93FF9380E192E00E94E100FF91EF91EF
:10079000BF91AF919F918F917F916F915F914F9199
:1007A0003F912F910F900FBE0F901F9018951F92A1
:1007B0000F920FB60F9211242F938F939F93EF9365
:1007C000FF93E0912002F09121028081E0912602C6
:1007D000F091270282FD1BC09081809129028F5FDA
:1007E0008F7320912A02821741F0E0912902F0E0F4
:1007F000E05FFD4F958F80932902FF91EF919F91CC
:100800008F912F910F900FBE0F901F9018958081A0
:10081000F4CF1F920F920FB60F9211242F933F9394
:100820008F939F93AF93BF9380915F0190916001ED
:10083000A0916101B091620130913D0123E0230F4D
:100840002D3758F50196A11DB11D20933D018093D0
:100850005F0190936001A0936101B0936201809168
:100860003E0190913F01A0914001B091410101965C
:10087000A11DB11D80933E0190933F01A0934001C3
:10088000B0934101BF91AF919F918F913F912F9173
:100890000F900FBE0F901F90189526E8230F029619
:1008A000A11DB11DD2CFE0E1F2E01382128288EEE9
:1008B00093E0A0E0B0E084839583A683B7838CE2C5
:1008C00091E09183808385EC90E09587848784EC28
:1008D00090E09787868780EC90E0918B808B81EC0D
:1008E00090E0938B828B82EC90E0958B848B86ECEE
:1008F00090E0978B868B118E128E138E148EEDEAFC
:10090000F2E08FEF808312821182148613868FEFBC
:100910009FEFDC0187839087A187B28780EC92E00C
:100920000E947B038AEB92E00C947B03CF93DF93CE
:1009300000D01F92CDB7DEB7789484B5826084BDB5
:1009400084B5816084BD85B5826085BD85B58160D3
:1009500085BD80916E00816080936E001092810051
:10096000809181008260809381008091810081600C
:1009700080938100809180008160809380008091CD
:10098000B10084608093B1008091B0008160809359
:10099000B00080917A00846080937A0080917A0020
:1009A000826080937A0080917A00816080937A00DF
:1009B00080917A00806880937A001092C100E09163
:1009C0002002F091210282E08083E0911C02F091EC
:1009D0001D021082E0911E02F0911F028FEC8083B5
:1009E00010922802E0912402F091250286E0808393
:1009F000E0912202F0912302808180618083E09166
:100A00002202F0912302808188608083E09122029B
:100A1000F0912302808180688083E0912202F0912E
:100A2000230280818F7D808380915501811145C093
:100A300010924701109246018FEF80934A018093F4
:100A40004B0180934C0180934D0180934E01809324
:100A50004F0181E080935001109252011092510198
:100A600010924901109248018091690190916A01A8
:100A7000892B31F484E491E090936A0180936901B9
:100A8000E0914201F0914301309721F084E491E03C
:100A90009583848384E491E09093430180934201A1
:100AA0008AE191E0909345018093440110925401B2
:100AB0001092530181E080935501569A259A83E55F
:100AC00091E00E9423028FE691E09093470180938A
:100AD00046018EE190E0909352018093510180E0B5
:100AE000282E80E0382ECC24C39480E192E00E942E
:100AF000C10020910F021816190654F521112BC0C0
:100B000080E192E00E949F0090915E019923D9F0CC
:100B100090915D01E92FF0E0E153FE4F8E3359F0E3
:100B200080839F5F903220F03FE130935D01DDCF05
:100B300090935D01DACF108210925E0110925D01F8
:100B4000C0920F02D2CF8C3381F6C0925E01CDCF1E
:100B5000222309F43BC16FEC71E08FEE91E00E941B
:100B6000F6096AE371E08FEE91E00E9421070E948E
:100B700003079093CE018093CD016AE371E090E08A
:100B800080E00E9421070E9403079093CC0180938C
:100B9000CB016AE371E090E080E00E9421070E94AF
:100BA00003078093C9019093CA019091CD012091D0
:100BB000CB01EFE6F1E08083218392833396A1E0BD
:100BC000E93CFA07C1F7D090AD028091B002909154
:100BD000B102A091B202B091B302892B8A2B8B2B68
:100BE000D9F00E94700100916B0110916C0120916D
:100BF0006D0130916E01601B710B820B930B0091A4
:100C0000B0021091B1022091B2023091B30260178C
:100C1000710782079307C8F20E94700160936B010D
:100C200070936C0180936D0190936E01E091B80216
:100C3000F091B902309759F04091B4025091B50249
:100C40006091B6027091B7028D2D0995D82EE09073
:100C50006901F0906A014D2C512C712C612CE1142A
:100C6000F10409F459C0F701B4848091AE02909167
:100C7000AF028436910508F41486D701ED91FC91FA
:100C80008280938019821A821B82DD2091F1870174
:100C90000A5F1F4FF0E0E0E0D8012D918D01222383
:100CA00021F11296AC90AA2001F130E050E040E032
:100CB0002F5F3F4F4F4F5F4FC301B2010E94A60706
:100CC0009B01AC018A2D90E0B0E0A0E0BC01CD0119
:100CD0006F5F7F4F8F4F9F4F0E94A607A1E0B0E04C
:100CE000AC0FBD1FAE0FBF1F8C933196E330F105E3
:100CF00099F609811A812B81F70145855685628114
:100D00007381C701F4010995D7011C96BC921C9709
:100D10001496ED90FC90A3CF8091670190916801AB
:100D20009C012F5F3F4F30936801209367014997E3
:100D30000CF44AC08FB7F89420915F0130916001A4
:100D400040916101509162018FBF80916301909148
:100D50006401A0916501B0916601281B390B4A0B13
:100D60005B0B21F421E030E040E050E0809167012E
:100D700090916801E8EEF3E08E9FB0018F9F700DB7
:100D80009E9F700D1124072E000C880B990B0E945A
:100D9000CA073093AF022093AE02109268011092FE
:100DA00067012FB7F89480915F0190916001A09145
:100DB0006101B09162012FBF809363019093640140
:100DC000A0936501B093660110920F0221143104C3
:100DD00009F48BCE0E94CD00882309F486CE0E94B0
:100DE000000083CE8091BA029091BB02009711F06F
:100DF0000E94A2088091C0029091C102009711F058
:100E00000C94A2080895FC0188279927E894219161
:100E10002032E9F3293010F02E30C8F32B3241F0A4
:100E20002D3239F4689404C00E944D07820F911D41
:100E3000219120532A30C0F31EF4909581959F4F45
:100E4000089546EC52E00E9426070895FA01A19108
:100E5000B081009719F41097E1F0CD01DC01CD01CC
:100E60000D90002011F4C00113C0FB012191222339
:100E700019F02015D9F7F3CFFB012191201519F4B2
:100E80001E92119606C02223C1F70D900020A1F7F3
:100E9000D001FA01A193B08308957AE0979F902D35
:100EA000879F802D910D112408950E949707A59F7B
:100EB000900DB49F900DA49F800D911D1124089555
:100EC0002F923F924F925F926F927F928F929F925A
:100ED000AF92BF92CF92DF92EF92FF920F931F9348
:100EE000CF93DF93CDB7DEB7CA1BDB0B0FB6F894F9
:100EF000DEBF0FBECDBF09942A88398848885F8439
:100F00006E847D848C849B84AA84B984C884DF80A9
:100F1000EE80FD800C811B81AA81B981CE0FD11D8D
:100F20000FB6F894DEBF0FBECDBFED010895A29FAE
:100F3000B001B39FC001A39F700D811D1124911DAD
:100F4000B29F700D811D1124911D0895DB018F93B7
:100F50009F930E945507BF91AF91A29F800D911D55
:100F6000A39F900DB29F900D1124089597FB072E1B
:100F700016F4009407D077FD09D00E94EC0707FC17
:100F800005D03EF4909581959F4F08957095619599
:100F90007F4F0895A1E21A2EAA1BBB1BFD010DC0B5
:100FA000AA1FBB1FEE1FFF1FA217B307E407F50719
:100FB00020F0A21BB30BE40BF50B661F771F881FF5
:100FC000991F1A9469F760957095809590959B018B
:100FD000AC01BD01CF010895AA1BBB1B51E107C0A5
:100FE000AA1FBB1FA617B70710F0A61BB70B881FB9
:100FF000991F5A95A9F780959095BC01CD01089548
:10100000EE0FFF1F0590F491E02D09940F931F93AD
:10101000CF93DF938230910510F482E090E0E0916D
:10102000CA02F091CB0230E020E0B0E0A0E03097BF
:1010300099F42115310509F44AC0281B390B2430D5
:101040003105D8F58A819B816115710589F1FB0114
:1010500093838283FE0111C04081518102811381FB
:1010600048175907E0F04817590799F4109761F0AD
:1010700012960C93129713961C933296CF01DF9120
:10108000CF911F910F9108950093CA021093CB0244
:10109000F4CF2115310551F04217530738F0A9015B
:1010A000DB019A01BD01DF01F801C1CFEF01F9CFEA
:1010B0009093CB028093CA02CDCFFE01E20FF31FC3
:1010C000819391932250310939832883D7CF20917E
:1010D000C8023091C902232B41F4209102013091C2
:1010E00003013093C9022093C8022091000130917E
:1010F00001012115310541F42DB73EB7409104019E
:1011000050910501241B350BE091C802F091C902F2
:10111000E217F307A0F42E1B3F0B2817390778F0CE
:10112000AC014E5F5F4F2417350748F04E0F5F1F2D
:101130005093C9024093C802819391939FCFF0E0EE
:10114000E0E09CCFCF93DF930097E9F0FC0132976A
:1011500013821282A091CA02B091CB02ED0130E05D
:1011600020E01097A1F420813181820F931F2091FC
:10117000C8023091C9022817390709F061C0F093FD
:10118000C902E093C802DF91CF910895EA01CE171A
:10119000DF07E8F54A815B819E0141155105B1F7F2
:1011A000E901FB83EA8349915991C40FD51FEC17DC
:1011B000FD0761F4808191810296840F951FE901FA
:1011C00099838883828193819B838A83F0E0E0E026
:1011D00012968D919C9113970097B9F52D913C91A2
:1011E0001197CD010296820F931F2091C802309172
:1011F000C9022817390739F6309751F51092CB02FA
:101200001092CA02B093C902A093C802BCCFD38384
:10121000C28340815181840F951FC817D90761F49B
:101220004E5F5F4F88819981480F591F51834083DA
:101230008A819B81938382832115310509F0B0CF88
:10124000F093CB02E093CA029ECFFD01DC01C0CF38
:1012500013821282D7CFB0E0A0E0E1E3F9E00C9472
:1012600062078C01009751F4CB010E9406088C01A3
:10127000C801CDB7DEB7E0E10C947E07FC01E60FB4
:10128000F71F9C0122503109E217F30708F49DC0B3
:10129000D901CD91DC911197C617D70798F0C530C9
:1012A000D10530F3CE0104978617970708F3C61BC4
:1012B000D70B2297C193D1936D937C93CF010E945A
:1012C000A208D6CF5B01AC1ABD0A4C018C0E9D1E44
:1012D000A091CA02B091CB02512C412CF12CE12CEF
:1012E000109731F58091C8029091C902881599052F
:1012F00009F05CC04616570608F058C080910001FE
:1013000090910101009741F48DB79EB7409104017F
:1013100050910501841B950BE817F90708F055C09B
:10132000F093C902E093C802F90171836083A0CFF2
:101330008D919C91119712966C90129713967C90B8
:101340001397A815B90559F56C0142E0C40ED11CDC
:10135000CA14DB0420F1AC014A195B09DA011296C8
:10136000159780F06282738251834083D9016D9317
:101370007C93E114F10471F0D7011396FC93EE9382
:10138000129776CF22968C0F9D1FF901918380834F
:10139000F301EFCFF093CB02E093CA0269CF481676
:1013A000590608F42C017D01D3019ACFCB010E948C
:1013B00006087C01009749F0AE01B8010E94ED09D2
:1013C000C8010E94A208870153CF10E000E050CF6F
:1013D00081E090E0F8940C94FD09FB01DC0102C06F
:1013E00001900D9241505040D8F70895FB01DC0167
:1013F00001900D920020E1F7089510E0C5E3D0E0E0
:1014000004C0FE010E9400082196C633D107C9F727
:10141000F894FFCF0000CC02800000000000AF0372
:10142000AF03AF035A03560360000000000013032C
:10143000CF02CA025A0356036000300200000000C7
:101440000301630090005001C1009F00B3002D0014
:107800000C94343C0C94513C0C94513C0C94513CE1
:107810000C94513C0C94513C0C94513C0C94513CB4
:107820000C94513C0C94513C0C94513C0C94513CA4
:107830000C94513C0C94513C0C94513C0C94513C94
:107840000C94513C0C94513C0C94513C0C94513C84
:107850000C94513C0C94513C0C94513C0C94513C74
:107860000C94513C0C94513C11241FBECFEFD8E036
:10787000DEBFCDBF11E0A0E0B1E0ECE9FFE702C060
:1078800005900D92A230B107D9F712E0A2E0B1E065
:1078900001C01D92AD30B107E1F70E942D3D0C945F
:1078A000CC3F0C94003C982F959595959595959582
:1078B000905D8F708A307CF0282F295A8091C0000B
:1078C00085FFFCCF9093C6008091C00085FFFCCF60
:1078D0002093C6000895282F205DF0CF982F809127
:1078E000C00085FFFCCF9093C6000895EF92FF92F1
:1078F0000F931F93EE24FF2487018091C00087FD22
:1079000017C00894E11CF11C011D111D81E4E8164B
:1079100082E4F8068FE0080780E0180770F3E09132
:107920000401F091050109958091C00087FFE9CF1E
:107930008091C6001F910F91FF90EF9008950E94D3
:10794000763C982F8091C00085FFFCCF9093C600B5
:1079500091362CF490330CF09053892F089597555D
:10796000892F08951F930E949F3C182F0E949F3CCF
:107970001295107F810F1F9108951F93182F882350
:1079800021F00E94763C1150E1F71F9108951F935A
:10799000182F0E94763C803249F0809103018F5F5E
:1079A000809303018530C1F01F9108958091C0003C
:1079B00085FFFCCF84E18093C6008091C00085FFE5
:1079C000FCCF1093C6008091C00085FFFCCF80E102
:1079D0008093C6001F910895E0910401F091050184
:1079E00009951F9108950E94763C803241F0809164
:1079F00003018F5F80930301853081F008958091AA
:107A0000C00085FFFCCF84E18093C6008091C00058
:107A100085FFFCCF80E18093C6000895E0910401CA
:107A2000F09105010995089540E951E08823A1F0FE
:107A30002D9A28EE33E0FA013197F1F721503040CA
:107A4000D1F72D9828EE33E0FA013197F1F7215064
:107A50003040D1F7815061F708953F924F925F9285
:107A60006F927F928F929F92AF92BF92CF92DF924E
:107A7000EF92FF920F931F93CF93DF93000080E16B
:107A80008093C4001092C50088E18093C10086E015
:107A90008093C2005098589A259A81E00E94143D24
:107AA00024E1F22E9EE1E92E85E9D82E0FE0C02ECA
:107AB00010E1B12EAA24A394B1E49B2EA6E58A2E50
:107AC000F2E57F2EE0E26E2E79E4572E63E5462E36
:107AD00050E5352E0E94763C8033B1F18133B9F107
:107AE000803409F46FC0813409F476C0823409F41B
:107AF00085C0853409F488C0803531F1823521F1A3
:107B0000813511F1853509F485C0863509F48DC0BC
:107B1000843609F496C0843709F403C1853709F423
:107B200072C1863709F466C0809103018F5F80932C
:107B30000301853079F6E0910401F0910501099582
:107B40000E94763C803351F60E94F33CC3CF0E94E2
:107B5000763C803249F78091C00085FFFCCFF092DF
:107B6000C6008091C00085FFFCCF9092C600809136
:107B7000C00085FFFCCF8092C6008091C00085FFC9
:107B8000FCCF7092C6008091C00085FFFCCF609250
:107B9000C6008091C00085FFFCCF5092C600809146
:107BA000C00085FFFCCF4092C6008091C00085FFD9
:107BB000FCCF3092C6008091C00085FFFCCFB09210
:107BC000C60088CF0E94763C863808F4BDCF0E945C
:107BD000763C0E94F33C7ECF0E94763C803809F4CC
:107BE0009CC0813809F40BC1823809F43CC1883942
:107BF00009F48FC080E00E94C73C6CCF84E10E94F2
:107C0000BD3C0E94F33C66CF85E00E94BD3C0E94D3
:107C1000F33C60CF0E94763C809306010E94763C44
:107C2000809307010E94F33C55CF0E94763C80333D
:107C300009F41DC183E00E94BD3C80E00E94C73C66
:107C400049CF0E94763C809309020E94763C809343
:107C5000080280910C028E7F80930C020E94763C79
:107C6000853409F415C18091080290910902892B8D
:107C700089F000E010E00E94763CF801E85FFE4FDA
:107C800080830F5F1F4F80910802909109020817AF
:107C9000190788F30E94763C803209F045CF809125
:107CA0000C0280FF01C16091060170910701660F0F
:107CB000771F7093070160930601A0910802B091AD
:107CC00009021097C9F0E8E0F1E09B01AD014E0F09
:107CD0005F1FF999FECF32BD21BD819180BDFA9A17
:107CE000F99A2F5F3F4FE417F50799F76A0F7B1F4B
:107CF00070930701609306018091C00085FFFCCF5F
:107D0000F092C6008091C00085FFFCCFB092C60003
:107D1000E1CE83E00E94C73CDDCE82E00E94C73CFA
:107D2000D9CE0E94763C809309020E94763C8093D3
:107D300008028091060190910701880F991F909386
:107D40000701809306010E94763C853409F4A6C0A1
:107D500080910C028E7F80930C020E94763C8032D0
:107D600009F0B8CE8091C00085FFFCCFF092C6002C
:107D7000609108027091090261157105B9F140E046
:107D800050E080910C02A82FA170B82FB27011C0E2
:107D9000BB2309F45CC0E0910601F0910701319624
:107DA000F0930701E09306014F5F5F4F46175707B7
:107DB000E8F4AA2369F3F999FECF209106013091E6
:107DC000070132BD21BDF89A90B58091C00085FFB2
:107DD000FCCF9093C6002F5F3F4F30930701209355
:107DE00006014F5F5F4F4617570718F38091C00099
:107DF00085FDE5CE8091C00085FFF8CFE0CE81E023
:107E00000E94C73C67CE0E94763C803209F08CCE3F
:107E10008091C00085FFFCCFF092C6008091C00029
:107E200085FFFCCFE092C6008091C00085FFFCCFAB
:107E3000D092C6008091C00085FFFCCFC092C600E2
:107E40008091C00085FFFCCFB092C60043CEE09188
:107E50000601F091070194918091C00085FFFCCF4D
:107E60009093C6009CCF80E10E94C73C33CE0E9415
:107E7000763C0E94763C182F0E94763C112309F430
:107E800083C0113009F484C08FE00E94C73C22CE29
:107E900080910C02816080930C02E5CE80910C02EF
:107EA000816080930C0259CF809107018823880F4D
:107EB000880B8A2180930B02809106019091070123
:107EC000880F991F90930701809306018091080203
:107ED00080FF09C080910802909109020196909359
:107EE000090280930802F894F999FECF1127E091D6
:107EF0000601F0910701C8E0D1E08091080290915D
:107F00000902103091F40091570001700130D9F34B
:107F100003E000935700E89500915700017001308D
:107F2000D9F301E100935700E89509901990009169
:107F3000570001700130D9F301E000935700E89534
:107F40001395103498F011270091570001700130FB
:107F5000D9F305E000935700E895009157000170B0
:107F60000130D9F301E100935700E895329602976A
:107F700009F0C7CF103011F00296E5CF112480919F
:107F8000C00085FFB9CEBCCE8EE10E94C73CA2CD19
:0E7F900085E90E94C73C9ECDF894FFCF80008B
:00000001FF
